:100000000C948C000C94AB000C94AB000C94AB00E3
:100010000C94AB000C94AB000C94AB000C94AB00B4
:100020000C94AB000C94AD000C94AB000C94AB00A2
:100030000C94AB000C94AB000C94AB000C94AB0094
:100040000C94AB000C94AB000C94AB000C94AB0084
:100050000C94AB000C94AB000C94AB000C94AB0074
:100060000C94AB000C94AB000C94AB000C94AB0064
:100070000C94AB000C94AB000C94AB000C94AB0054
:100080000C94AB000C9493010C94AB000E1113155F
:1000900019110E040C040404040E0E1101060810BC
:1000A0001F0E11010601110E060A12121F02021F75
:1000B000101E0101110E0E11101E11110E1F010252
:1000C000040808080E11110E11110E1E11111E1236
:1000D0001111111119151311110000000000000079
:1000E000000A0004110E0000000004040E1F1F0E81
:1000F00004040000001F151F1B1F111F000A00042D
:10010000000E001F150000000A1F04041F1F1F041B
:100110000418181818181F1F11241FBECFEFD0E1A4
:10012000DEBFCDBF11E0A0E0B1E0E4E8FBE000E01D
:100130000BBF02C007900D92A231B107D9F711E0B1
:10014000A2E1B1E001C01D92AC37B107E1F70E9416
:10015000B5040C94C0050C9400001F920F920FB6CA
:100160000F9211240BB60F922F933F934F935F93EF
:100170006F937F938F939F93AF93BF93EF93FF936F
:100180008091580190915901A0915A01B0915B0161
:100190000196A11DB11D8093580190935901A09320
:1001A0005A01B0935B0178940E944003FF91EF9154
:1001B000BF91AF919F918F917F916F915F914F917F
:1001C0003F912F910F900BBE0F900FBE0F901F907D
:1001D000189514BC85B58B6085BD8BE283BD87B750
:1001E000806887BF78940895CF92DF92EF92FF9254
:1001F000C0905801D0905901E0905A01F0905B01F5
:10020000209158012C1541F0C0905801D09059010F
:10021000E0905A01F0905B019C01ADE7B0E00E94D4
:10022000830526E130E040E050E00E949E05809189
:10023000580190915901A0915A01B0915B016091D0
:100240005801681741F08091580190915901A0918F
:100250005A01B0915B018C199D09AE09BF09821743
:100260009307A407B50718F3FF90EF90DF90CF90A6
:1002700008958093720084E08093740010921401BA
:100280000895809114010895809114018111FCCF8B
:10029000809100010895209114012111FCCF6093F9
:1002A0001501FC0186E191E0DC012A2F281B2617AD
:1002B00018F421912D93F9CF1092120188EF8093B9
:1002C000000185EC8093740081E08093140108950F
:1002D000809114018111FCCF1092120188EF80935C
:1002E000000185EC80937400109214010895209110
:1002F00014012111FCCF2091120120FF10C026E132
:1003000031E0FC01D9018A2F821B861718F48D91E8
:100310008193F9CF809112018D7F8093120180919A
:100320001201817008951F920F920FB60F9211243F
:100330000BB60F928F939F93EF93FF938091710071
:10034000803909F451C080F48037D9F130F4882322
:1003500009F45CC08036D1F161C0803809F444C032
:10036000883809F453C05AC0883A81F038F4883983
:1003700009F44CC0803A09F455C050C0803CA9F043
:10038000883C09F443C0883B19F048C0109213011F
:10039000E091130181E08E0F80931301F0E0EA5E9B
:1003A000FE4F80818093730018C09091130180915B
:1003B0001501981333C0809112018160809312015E
:1003C00031C08091120184608093120180911201EA
:1003D0008260809312011092130185EC8093740067
:1003E00081E08093140123C0E091130181E08E0F1E
:1003F0008093130180917300F0E0EA5EFE4F8083EA
:1004000080911201816080931201E7CF8091710089
:100410008093000180E98093740009C0809171008D
:100420008093000185EC8093740010921401FF9179
:10043000EF919F918F910F900BBE0F900FBE0F9079
:100440001F90189588EF81BB12BA8FE784BB15BA4D
:100450000895893309F477C058F5843309F45FC0EF
:10046000B8F4813309F451C040F4803309F08EC0F0
:1004700080E390E0A0E0B0E08DC0823309F44AC090
:10048000833309F083C083E390E0A0E0B0E082C052
:10049000863309F44EC008F447C0873309F44EC0D0
:1004A000883309F073C088E390E0A0E0B0E072C048
:1004B000843609F45CC080F48B3309F467C008F417
:1004C00047C08C3309F449C0813609F05FC08FE31F
:1004D00090E0A0E0B0E05EC0833709F44DC058F46E
:1004E0008C3609F44EC0813709F050C081E490E0A9
:1004F000A0E0B0E04FC08537A9F1873709F046C0CA
:1005000082E490E0A0E0B0E045C081E390E0A0E0AC
:10051000B0E040C082E390E0A0E0B0E03BC084E304
:1005200090E0A0E0B0E036C085E390E0A0E0B0E06D
:1005300031C086E390E0A0E0B0E02CC087E390E01B
:10054000A0E0B0E027C089E390E0A0E0B0E022C0E6
:100550008AE390E0A0E0B0E01DC08CE390E0A0E072
:10056000B0E018C08DE390E0A0E0B0E013C08EE3EF
:1005700090E0A0E0B0E00EC080E490E0A0E0B0E049
:1005800009C083E490E0A0E0B0E004C08BE390E019
:10059000A0E0B0E080933A0190933B01A0933C012E
:1005A000B0933D010895CF93DF93FC0140815181C9
:1005B000DC0120E030E0FB0131972E173F074CF4BF
:1005C0001296CD91DC911397CD93DD932F5F3F4F22
:1005D000F4CFFB01E150F048EE0FFF1FE80FF91FC9
:1005E00051834083DF91CF910895FB01E150F048A2
:1005F000EE0FFF1FDC01AE0FBF1F2D913C91329615
:10060000E80FF91F61507109161617063CF4DF0157
:1006100014974D915C9152934293F4CFFC01318336
:1006200020830895A82FB0E0AA0FBB1FAF5FBE4F75
:1006300070E06053710987E0869FF001879FF00D9D
:1006400011248D919C91E80FF91FE457FF4FE4911D
:1006500082B3877082BB85B3807885BB82B398E014
:10066000E99FF00111248E2B82BB81E090E0009085
:100670003E0102C0880F991F0A94E2F785BB0895D6
:100680006091360170913701809138019091390164
:100690002AE030E040E050E00E949E05672B682B86
:1006A000692B71F460913A0180913E010E9412031E
:1006B00080913E018F5F67E00E94920590933E011A
:1006C0006091360170913701809138019091390124
:1006D0002CE231E040E050E00E949E05672B682B41
:1006E000692B09F047C080913A0190913B01A0919C
:1006F0003C01B0913D018D339105A105B10559F043
:10070000CE97A105B10571F467E070E081E091E05A
:100710000E94F5022FC067E070E081E091E00E9446
:10072000D30228C0109202011092010181E090E0F2
:10073000909304018093030182E090E0909306017E
:100740008093050183E090E0909308018093070176
:1007500084E090E090930A018093090185E090E0A5
:1007600090930C0180930B0186E090E090930E0132
:1007700080930D018091360190913701A09138014D
:10078000B09139010196A11DB11D8093360190935E
:100790003701A0933801B093390108958FEF8ABBD8
:1007A0001BBA0895811102C0D9980895D99A089565
:1007B000811102C0DA980895DA9A08958F929F9273
:1007C000AF92BF92CF92DF92EF92FF921F93CF939F
:1007D000DF93EC01162F9C01ADE7B0E00E9483058A
:1007E0006A3E25E1720781059105C0F4B090580179
:1007F00020914101CB2CC21AD12CE12CF12C26E105
:1008000030E040E050E00E949E052C153D054E056D
:100810005F0508F06CC0B092410150C06A3E3FEFE6
:10082000730735E183079105F0F4E0905801F090EB
:10083000590120914101309142014701821A930AE6
:10084000A12CB12C26E130E040E050E00E949E0552
:10085000281539054A055B0508F049C0F0924201A8
:10086000E09241012BC0C0905801D0905901E09016
:100870005A01F0905B018090410190904201A0905C
:100880004301B0904401A7019601281939094A098A
:100890005B0949015A0126E130E040E050E00E9446
:1008A0009E05281539054A055B0508F5C0924101EA
:1008B000D0924201E0924301F0924401CD2B99F095
:1008C00080914001813079F0113031F018F0123010
:1008D00029F005C0DC9A02C0DC9A01C0DE9A81E0F2
:1008E0008093400104C0DC98DE9810924001DF91B3
:1008F000CF911F91FF90EF90DF90CF90BF90AF907E
:100900009F908F900895BD9A139A8FEF9FEF9BBD94
:100910008ABD90938700809386008FB580658FBDD8
:100920008EB588608EBDEBE8F0E0808180648083C6
:10093000EAE8F0E080818860808308958EB58B7F3F
:100940008EBDC5980895EAE8F0E080818B7F8083B2
:100950001B9808958EB584608EBD0895EAE8F0E096
:10096000808184608083089508951BBA1ABA18BAEA
:1009700017BA15BA14BA12BA11BA13B812B810923B
:10098000620010926100109265001092640088E18C
:100990000FB6F89481BD11BC0FBE0E94CE030E9419
:1009A00022020E9483040E94E90080910F01880FB7
:1009B00081600E94390178940E9468018CE390E084
:1009C000A0E0B0E080933A0190933B01A0933C01FA
:1009D000B0933D0180ED97E00E94F4008BE390E03E
:1009E000A0E0B0E080933A0190933B01A0933C01DA
:1009F000B0933D01CFEFDFEF0E944101811176C03E
:100A00008091120180FF70C081FF67C064E08CE5B7
:100A100091E00E9477018091120182FD5EC0809179
:100A20005C01813041F480915D0190E09093570129
:100A30008093560106C0883121F480915D010E94A7
:100A4000D20380915C01893121F480915D010E9483
:100A5000D80380915C01803291F420915E018091F5
:100A60005D0190E0982F8827820F911D909355018A
:100A70008093540180915F018093100113C08731EE
:100A800089F480915D018BBD80915E018ABDDDBDE1
:100A9000CCBD8AB59BB5019619F40E949E0402C094
:100AA0000E94AA0480915C018131B9F480915D01BA
:100AB0008093870080915E0180938600D0938900A7
:100AC000C09388008091860090918700019619F468
:100AD0000E94A30402C00E94AE040E944101811141
:100AE00005C00E94680102C00E9444018091560125
:100AF0000E9429026091100180915401909155014A
:100B00000E94DE0379CFA29FB001B39FC001A39FD3
:100B1000700D811D1124911DB29F700D811D112436
:100B2000911D0895991B79E004C0991F961708F04C
:100B3000961B881F7A95C9F780950895A1E21A2E11
:100B4000AA1BBB1BFD010DC0AA1FBB1FEE1FFF1F71
:100B5000A217B307E407F50720F0A21BB30BE40BC1
:100B6000F50B661F771F881F991F1A9469F7609508
:100B70007095809590959B01AC01BD01CF010895C2
:040B8000F894FFCF17
:100B8400F800000100020003000400050006001044
:020B940001005E
:00000001FF
